{
  "contractName": "DiceClassicToken",
  "abi": [
    {
      "constant": true,
      "inputs": [],
      "name": "gameCounter",
      "outputs": [
        {
          "name": "",
          "type": "uint256"
        }
      ],
      "payable": false,
      "stateMutability": "view",
      "type": "function"
    },
    {
      "constant": true,
      "inputs": [],
      "name": "paused",
      "outputs": [
        {
          "name": "",
          "type": "bool"
        }
      ],
      "payable": false,
      "stateMutability": "view",
      "type": "function"
    },
    {
      "inputs": [
        {
          "name": "token_",
          "type": "address"
        }
      ],
      "payable": false,
      "stateMutability": "nonpayable",
      "type": "constructor"
    },
    {
      "anonymous": false,
      "inputs": [],
      "name": "Pause",
      "type": "event"
    },
    {
      "anonymous": false,
      "inputs": [],
      "name": "Unpause",
      "type": "event"
    },
    {
      "anonymous": false,
      "inputs": [
        {
          "indexed": true,
          "name": "player",
          "type": "address"
        },
        {
          "indexed": false,
          "name": "profit",
          "type": "uint256"
        },
        {
          "indexed": false,
          "name": "bet",
          "type": "uint256"
        },
        {
          "indexed": false,
          "name": "guess",
          "type": "uint256"
        },
        {
          "indexed": false,
          "name": "roll",
          "type": "uint256"
        },
        {
          "indexed": false,
          "name": "lowOrHigher",
          "type": "bool"
        },
        {
          "indexed": false,
          "name": "win",
          "type": "bool"
        }
      ],
      "name": "LastBet",
      "type": "event"
    },
    {
      "constant": false,
      "inputs": [],
      "name": "pause",
      "outputs": [],
      "payable": false,
      "stateMutability": "nonpayable",
      "type": "function"
    },
    {
      "constant": false,
      "inputs": [],
      "name": "unpause",
      "outputs": [],
      "payable": false,
      "stateMutability": "nonpayable",
      "type": "function"
    },
    {
      "constant": false,
      "inputs": [
        {
          "name": "guess",
          "type": "uint256"
        },
        {
          "name": "bet",
          "type": "uint256"
        },
        {
          "name": "lowOrHigher",
          "type": "bool"
        }
      ],
      "name": "game",
      "outputs": [
        {
          "name": "",
          "type": "bool"
        }
      ],
      "payable": false,
      "stateMutability": "nonpayable",
      "type": "function"
    },
    {
      "constant": true,
      "inputs": [],
      "name": "getBalance",
      "outputs": [
        {
          "name": "",
          "type": "uint256"
        }
      ],
      "payable": false,
      "stateMutability": "view",
      "type": "function"
    },
    {
      "constant": false,
      "inputs": [],
      "name": "back",
      "outputs": [],
      "payable": false,
      "stateMutability": "nonpayable",
      "type": "function"
    }
  ],
  "bytecode": "0x608060405234801561001057600080fd5b50604051602080610a608339810180604052602081101561003057600080fd5b5051600080546001600160a01b0319166001600160a01b03831617905560038054610100600160a81b0319166101003302179055610073610079602090811b901c565b506100b7565b6001805460408051426020808301919091523360601b8284015260548083019490945282518083039094018452607490910190915281519101209055565b61099a806100c66000396000f3fe608060405234801561001057600080fd5b506004361061007d5760003560e01c80633f4ba83a1161005b5780633f4ba83a146100e35780635c975abb146100ed5780638456cb59146100f55780638dde0840146100fd5761007d565b806312065fe0146100825780632e0be39a1461009c5780633b13407f146100a4575b600080fd5b61008a610105565b60408051918252519081900360200190f35b61008a610185565b6100cf600480360360608110156100ba57600080fd5b5080359060208101359060400135151561018b565b604080519115158252519081900360200190f35b6100eb6103c7565b005b6100cf610427565b6100eb610430565b6100eb610494565b6000805460408051600160e01b6370a0823102815230600482015290516001600160a01b03909216916370a0823191602480820192602092909190829003018186803b15801561015457600080fd5b505afa158015610168573d6000803e3d6000fd5b505050506040513d602081101561017e57600080fd5b5051905090565b60025481565b60035460009060ff161561019e57600080fd5b600284101580156101b0575060628411155b6102045760408051600160e51b62461bcd02815260206004820152600e60248201527f6775657373206f66662073697a65000000000000000000000000000000000000604482015290519081900360640190fd5b6000805460408051600160e01b6323b872dd0281523360048201523060248201526044810187905290516001600160a01b03909216926323b872dd926064808401936020939083900390910190829087803b15801561026257600080fd5b505af1158015610276573d6000803e3d6000fd5b505050506040513d602081101561028c57600080fd5b50600090508061029c8685610567565b915091506000821561034e576102b38787876105a3565b90506102c0816064610613565b6000805460408051600160e01b63a9059cbb0281523360048201526024810185905290519394506001600160a01b039091169263a9059cbb92604480840193602093929083900390910190829087803b15801561031c57600080fd5b505af1158015610330573d6000803e3d6000fd5b505050506040513d602081101561034657600080fd5b506103519050565b50845b6103596106cf565b600280546001019055604080518281526020810188905280820189905260608101849052861515608082015284151560a0820152905133917fe11d5bc85e3afabca5a0e8eeb48a86d6965b023fb22afd6e67265e4e32523dc6919081900360c00190a2509095945050505050565b60035461010090046001600160a01b031633146103e357600080fd5b60035460ff166103f257600080fd5b6003805460ff191690556040517f7805862f689e2f13df9f062ff482ad3ad112aca9e0847911ed832e158c525b3390600090a1565b60035460ff1681565b60035461010090046001600160a01b0316331461044c57600080fd5b60035460ff161561045c57600080fd5b6003805460ff191660011790556040517f6985a02210a168e66602d3235cb6db0e70f92b3ba4d376a33c0f3d9434bff62590600090a1565b60035461010090046001600160a01b031633146104b057600080fd5b60035461010090046001600160a01b03163314156105655760006104d2610105565b6000805460035460408051600160e01b63a9059cbb0281526001600160a01b036101009093048316600482015260248101869052905194955091169263a9059cbb92604480840193602093929083900390910190829087803b15801561053757600080fd5b505af115801561054b573d6000803e3d6000fd5b505050506040513d602081101561056157600080fd5b5050505b565b60008060006105758561070d565b905060008461058d57610588868361075b565b610597565b6105978683610760565b96919550909350505050565b600080826105b457846062036105b6565b845b905060006105ef6103e86105e384816105d660628563ffffffff61076416565b8a9063ffffffff61076416565b9063ffffffff6107c716565b905060006105fb610105565b905080821115610609578091505b5095945050505050565b60008061062c6103e86105e3868663ffffffff61076416565b90506000809054906101000a90046001600160a01b03166001600160a01b03166342966c68826040518263ffffffff1660e01b815260040180828152602001915050602060405180830381600087803b15801561068857600080fd5b505af115801561069c573d6000803e3d6000fd5b505050506040513d60208110156106b257600080fd5b506106c59050848263ffffffff61080916565b9150505b92915050565b6001805460408051426020808301919091523360601b8284015260548083019490945282518083039094018452607490910190915281519101209055565b6000606442600154846040516020018084815260200183815260200182815260200193505050506040516020818303038152906040528051906020012060001c8161075457fe5b0692915050565b101590565b1090565b600082610773575060006106c9565b8282028284828161078057fe5b04146107c057604051600160e51b62461bcd02815260040180806020018281038252602181526020018061094e6021913960400191505060405180910390fd5b9392505050565b60006107c083836040518060400160405280601a81526020017f536166654d6174683a206469766973696f6e206279207a65726f00000000000081525061084b565b60006107c083836040518060400160405280601e81526020017f536166654d6174683a207375627472616374696f6e206f766572666c6f7700008152506108f0565b600081836108da57604051600160e51b62461bcd0281526004018080602001828103825283818151815260200191508051906020019080838360005b8381101561089f578181015183820152602001610887565b50505050905090810190601f1680156108cc5780820380516001836020036101000a031916815260200191505b509250505060405180910390fd5b5060008385816108e657fe5b0495945050505050565b6000818484111561094557604051600160e51b62461bcd02815260206004820181815283516024840152835190928392604490910191908501908083836000831561089f578181015183820152602001610887565b50505090039056fe536166654d6174683a206d756c7469706c69636174696f6e206f766572666c6f77a165627a7a72305820d8da02781095dc75a17f5be572e24a0d5b3b11c3510f8ac14f831f4a35adacf80029",
  "source": "// SPDX-License-Identifier: GPL-3.0\npragma solidity ^0.5.8;\nimport \"./SafeMath.sol\";\nimport \"./IBEP20.sol\";\n\ncontract DiceClassicToken{\n\n    using SafeMath for uint;\n    IBEP20 token;\n    uint constant private RANGE = 100;\n    uint constant private MAX_RANGE = 98;\n    uint constant private MIN_RANGE = 2;\n    uint constant private DECIMALS = 10 ** 3;\n    uint constant private PERCENTS_DIVIDER = 1000;\n    uint constant private WIN_FEE = 100;\n\n    uint lastPseudoRandom;\n    uint public gameCounter;\n    bool public paused;\n    address owner;\n\n    event Pause();\n    event Unpause();\n    event LastBet(\n        address indexed player,\n        uint profit,\n        uint bet,\n        uint guess,\n        uint roll,\n        bool lowOrHigher,\n        bool  win\n    );\n\n    modifier onlyOwner() {\n        require(msg.sender == owner);\n        _;\n    }\n    modifier whenNotPaused() {\n        require(!paused);\n        _;\n    }\n    modifier whenPaused() {\n        require(paused);\n        _;\n    }\n\n    constructor(address token_) public{\n        token = IBEP20(token_);\n        owner = msg.sender;\n        pseudoRandomFunction();\n    }\n    function pause() onlyOwner whenNotPaused public {\n        paused = true;\n        emit Pause();\n    }\n    function unpause() onlyOwner whenPaused public {\n        paused = false;\n        emit Unpause();\n    }\n\n    function pseudoRandomFunction() internal{\n        lastPseudoRandom = uint256(keccak256(abi.encodePacked(block.timestamp,msg.sender,lastPseudoRandom)));\n    }\n\n    function getRandomNumber(uint seed) internal view returns(uint256){\n        return  uint256(keccak256(abi.encodePacked(block.timestamp,lastPseudoRandom,seed))) % RANGE;\n    }\n\n    function game(uint guess, uint bet, bool lowOrHigher ) external whenNotPaused returns(bool){\n        require(guess >= MIN_RANGE && guess <= MAX_RANGE,\"guess off size\");\n        token.transferFrom(msg.sender,address(this),bet);\n        (bool win,uint roll)=rollDice(guess, lowOrHigher);\n        uint profit;\n        if(win){\n            profit= getProfit(guess,bet,lowOrHigher);\n            profit  = burnToken(profit,WIN_FEE);\n            token.transfer(msg.sender,profit);\n        }\n        else{\n            profit = bet;\n        }\n        pseudoRandomFunction();\n        gameCounter++;\n\n        emit LastBet(msg.sender,profit, bet,guess,roll,lowOrHigher,win);\n        return win;\n    }\n\n    function rollDice(uint value, bool lowOrHigher ) internal view returns(bool,uint){\n        uint num = getRandomNumber(value);\n        bool win = lowOrHigher?lower(value,num):higher(value,num);\n        return (win,num);\n    }\n\n    function lower(uint value, uint num) internal pure returns(bool){\n        return value >num;\n    }\n    function higher(uint value, uint num) internal pure returns(bool){\n        return value <=num;\n    }\n\n    function burnToken(uint value, uint percent) internal returns(uint){\n        uint amount =value.mul(percent).div(PERCENTS_DIVIDER);\n        token.burn(amount);\n        return value.sub(amount);\n    }\n\n    function getProfit(uint value, uint bet, bool lowOrHigher) internal view returns(uint){\n        uint n =lowOrHigher?value: MAX_RANGE - value;\n        uint profit = bet.mul(MAX_RANGE.mul(DECIMALS)).div(n).div(DECIMALS);\n        uint balance = getBalance();\n        if(profit > balance)\n            profit = balance;\n        return  profit;\n    }\n\n    function getBalance() public view returns (uint){\n        return token.balanceOf(address(this));\n    }\n\n    //beta function, only for develop\n    function back() external onlyOwner{\n        if(msg.sender == owner){\n            uint balance =getBalance();\n            token.transfer(owner,balance);\n        }\n    }\n}",
  "sourcePath": "/media/Windows/Documentos/proyectos/solidity/proyecto-nuevo/dices/contracts/dice.sol",
  "compiler": {
    "name": "solc",
    "version": "0.5.8+commit.23d335f2.Emscripten.clang"
  },
  "schemaVersion": "3.3.4",
  "updatedAt": "2021-03-25T13:26:36.794Z",
  "networkType": "ethereum",
  "devdoc": {
    "methods": {}
  },
  "userdoc": {
    "methods": {}
  }
}